{
  "_format": "hh-sol-artifact-1",
  "contractName": "CertificateNFT",
  "sourceName": "contracts/CertificateNFT.sol",
  "abi": [
    {
      "inputs": [],
      "stateMutability": "nonpayable",
      "type": "constructor"
    },
    {
      "anonymous": false,
      "inputs": [
        {
          "indexed": true,
          "internalType": "address",
          "name": "owner",
          "type": "address"
        },
        {
          "indexed": true,
          "internalType": "address",
          "name": "approved",
          "type": "address"
        },
        {
          "indexed": true,
          "internalType": "uint256",
          "name": "tokenId",
          "type": "uint256"
        }
      ],
      "name": "Approval",
      "type": "event"
    },
    {
      "anonymous": false,
      "inputs": [
        {
          "indexed": true,
          "internalType": "address",
          "name": "owner",
          "type": "address"
        },
        {
          "indexed": true,
          "internalType": "address",
          "name": "operator",
          "type": "address"
        },
        {
          "indexed": false,
          "internalType": "bool",
          "name": "approved",
          "type": "bool"
        }
      ],
      "name": "ApprovalForAll",
      "type": "event"
    },
    {
      "anonymous": false,
      "inputs": [
        {
          "indexed": true,
          "internalType": "bytes32",
          "name": "role",
          "type": "bytes32"
        },
        {
          "indexed": true,
          "internalType": "bytes32",
          "name": "previousAdminRole",
          "type": "bytes32"
        },
        {
          "indexed": true,
          "internalType": "bytes32",
          "name": "newAdminRole",
          "type": "bytes32"
        }
      ],
      "name": "RoleAdminChanged",
      "type": "event"
    },
    {
      "anonymous": false,
      "inputs": [
        {
          "indexed": true,
          "internalType": "bytes32",
          "name": "role",
          "type": "bytes32"
        },
        {
          "indexed": true,
          "internalType": "address",
          "name": "account",
          "type": "address"
        },
        {
          "indexed": true,
          "internalType": "address",
          "name": "sender",
          "type": "address"
        }
      ],
      "name": "RoleGranted",
      "type": "event"
    },
    {
      "anonymous": false,
      "inputs": [
        {
          "indexed": true,
          "internalType": "bytes32",
          "name": "role",
          "type": "bytes32"
        },
        {
          "indexed": true,
          "internalType": "address",
          "name": "account",
          "type": "address"
        },
        {
          "indexed": true,
          "internalType": "address",
          "name": "sender",
          "type": "address"
        }
      ],
      "name": "RoleRevoked",
      "type": "event"
    },
    {
      "anonymous": false,
      "inputs": [
        {
          "indexed": true,
          "internalType": "address",
          "name": "from",
          "type": "address"
        },
        {
          "indexed": true,
          "internalType": "address",
          "name": "to",
          "type": "address"
        },
        {
          "indexed": true,
          "internalType": "uint256",
          "name": "tokenId",
          "type": "uint256"
        }
      ],
      "name": "Transfer",
      "type": "event"
    },
    {
      "inputs": [],
      "name": "DEFAULT_ADMIN_ROLE",
      "outputs": [
        {
          "internalType": "bytes32",
          "name": "",
          "type": "bytes32"
        }
      ],
      "stateMutability": "view",
      "type": "function"
    },
    {
      "inputs": [],
      "name": "MINTER_ROLE",
      "outputs": [
        {
          "internalType": "bytes32",
          "name": "",
          "type": "bytes32"
        }
      ],
      "stateMutability": "view",
      "type": "function"
    },
    {
      "inputs": [
        {
          "internalType": "address",
          "name": "to",
          "type": "address"
        },
        {
          "internalType": "uint256",
          "name": "tokenId",
          "type": "uint256"
        }
      ],
      "name": "approve",
      "outputs": [],
      "stateMutability": "nonpayable",
      "type": "function"
    },
    {
      "inputs": [
        {
          "internalType": "address",
          "name": "owner",
          "type": "address"
        }
      ],
      "name": "balanceOf",
      "outputs": [
        {
          "internalType": "uint256",
          "name": "",
          "type": "uint256"
        }
      ],
      "stateMutability": "view",
      "type": "function"
    },
    {
      "inputs": [
        {
          "internalType": "uint256",
          "name": "tokenId",
          "type": "uint256"
        }
      ],
      "name": "getApproved",
      "outputs": [
        {
          "internalType": "address",
          "name": "",
          "type": "address"
        }
      ],
      "stateMutability": "view",
      "type": "function"
    },
    {
      "inputs": [
        {
          "internalType": "bytes32",
          "name": "role",
          "type": "bytes32"
        }
      ],
      "name": "getRoleAdmin",
      "outputs": [
        {
          "internalType": "bytes32",
          "name": "",
          "type": "bytes32"
        }
      ],
      "stateMutability": "view",
      "type": "function"
    },
    {
      "inputs": [
        {
          "internalType": "address",
          "name": "account",
          "type": "address"
        }
      ],
      "name": "grantMinterRole",
      "outputs": [],
      "stateMutability": "nonpayable",
      "type": "function"
    },
    {
      "inputs": [
        {
          "internalType": "bytes32",
          "name": "role",
          "type": "bytes32"
        },
        {
          "internalType": "address",
          "name": "account",
          "type": "address"
        }
      ],
      "name": "grantRole",
      "outputs": [],
      "stateMutability": "nonpayable",
      "type": "function"
    },
    {
      "inputs": [
        {
          "internalType": "bytes32",
          "name": "role",
          "type": "bytes32"
        },
        {
          "internalType": "address",
          "name": "account",
          "type": "address"
        }
      ],
      "name": "hasRole",
      "outputs": [
        {
          "internalType": "bool",
          "name": "",
          "type": "bool"
        }
      ],
      "stateMutability": "view",
      "type": "function"
    },
    {
      "inputs": [
        {
          "internalType": "address",
          "name": "owner",
          "type": "address"
        },
        {
          "internalType": "address",
          "name": "operator",
          "type": "address"
        }
      ],
      "name": "isApprovedForAll",
      "outputs": [
        {
          "internalType": "bool",
          "name": "",
          "type": "bool"
        }
      ],
      "stateMutability": "view",
      "type": "function"
    },
    {
      "inputs": [
        {
          "internalType": "uint256",
          "name": "tokenId",
          "type": "uint256"
        }
      ],
      "name": "isValid",
      "outputs": [
        {
          "internalType": "bool",
          "name": "",
          "type": "bool"
        }
      ],
      "stateMutability": "view",
      "type": "function"
    },
    {
      "inputs": [
        {
          "internalType": "address",
          "name": "recipient",
          "type": "address"
        }
      ],
      "name": "mintCertificate",
      "outputs": [],
      "stateMutability": "nonpayable",
      "type": "function"
    },
    {
      "inputs": [],
      "name": "name",
      "outputs": [
        {
          "internalType": "string",
          "name": "",
          "type": "string"
        }
      ],
      "stateMutability": "view",
      "type": "function"
    },
    {
      "inputs": [
        {
          "internalType": "uint256",
          "name": "tokenId",
          "type": "uint256"
        }
      ],
      "name": "ownerOf",
      "outputs": [
        {
          "internalType": "address",
          "name": "",
          "type": "address"
        }
      ],
      "stateMutability": "view",
      "type": "function"
    },
    {
      "inputs": [
        {
          "internalType": "bytes32",
          "name": "role",
          "type": "bytes32"
        },
        {
          "internalType": "address",
          "name": "account",
          "type": "address"
        }
      ],
      "name": "renounceRole",
      "outputs": [],
      "stateMutability": "nonpayable",
      "type": "function"
    },
    {
      "inputs": [
        {
          "internalType": "uint256",
          "name": "tokenId",
          "type": "uint256"
        }
      ],
      "name": "revokeCertificate",
      "outputs": [],
      "stateMutability": "nonpayable",
      "type": "function"
    },
    {
      "inputs": [
        {
          "internalType": "address",
          "name": "account",
          "type": "address"
        }
      ],
      "name": "revokeMinterRole",
      "outputs": [],
      "stateMutability": "nonpayable",
      "type": "function"
    },
    {
      "inputs": [
        {
          "internalType": "bytes32",
          "name": "role",
          "type": "bytes32"
        },
        {
          "internalType": "address",
          "name": "account",
          "type": "address"
        }
      ],
      "name": "revokeRole",
      "outputs": [],
      "stateMutability": "nonpayable",
      "type": "function"
    },
    {
      "inputs": [
        {
          "internalType": "address",
          "name": "from",
          "type": "address"
        },
        {
          "internalType": "address",
          "name": "to",
          "type": "address"
        },
        {
          "internalType": "uint256",
          "name": "tokenId",
          "type": "uint256"
        }
      ],
      "name": "safeTransferFrom",
      "outputs": [],
      "stateMutability": "nonpayable",
      "type": "function"
    },
    {
      "inputs": [
        {
          "internalType": "address",
          "name": "from",
          "type": "address"
        },
        {
          "internalType": "address",
          "name": "to",
          "type": "address"
        },
        {
          "internalType": "uint256",
          "name": "tokenId",
          "type": "uint256"
        },
        {
          "internalType": "bytes",
          "name": "data",
          "type": "bytes"
        }
      ],
      "name": "safeTransferFrom",
      "outputs": [],
      "stateMutability": "nonpayable",
      "type": "function"
    },
    {
      "inputs": [
        {
          "internalType": "address",
          "name": "operator",
          "type": "address"
        },
        {
          "internalType": "bool",
          "name": "approved",
          "type": "bool"
        }
      ],
      "name": "setApprovalForAll",
      "outputs": [],
      "stateMutability": "nonpayable",
      "type": "function"
    },
    {
      "inputs": [
        {
          "internalType": "bytes4",
          "name": "interfaceId",
          "type": "bytes4"
        }
      ],
      "name": "supportsInterface",
      "outputs": [
        {
          "internalType": "bool",
          "name": "",
          "type": "bool"
        }
      ],
      "stateMutability": "view",
      "type": "function"
    },
    {
      "inputs": [],
      "name": "symbol",
      "outputs": [
        {
          "internalType": "string",
          "name": "",
          "type": "string"
        }
      ],
      "stateMutability": "view",
      "type": "function"
    },
    {
      "inputs": [
        {
          "internalType": "uint256",
          "name": "tokenId",
          "type": "uint256"
        }
      ],
      "name": "tokenURI",
      "outputs": [
        {
          "internalType": "string",
          "name": "",
          "type": "string"
        }
      ],
      "stateMutability": "view",
      "type": "function"
    },
    {
      "inputs": [
        {
          "internalType": "address",
          "name": "from",
          "type": "address"
        },
        {
          "internalType": "address",
          "name": "to",
          "type": "address"
        },
        {
          "internalType": "uint256",
          "name": "tokenId",
          "type": "uint256"
        }
      ],
      "name": "transferFrom",
      "outputs": [],
      "stateMutability": "nonpayable",
      "type": "function"
    }
  ],
  "bytecode": "0x60806040523480156200001157600080fd5b506040518060400160405280600e81526020016d10d95c9d1a599a58d85d1953919560921b8152506040518060400160405280600481526020016310d1549560e21b815250816000908162000067919062000204565b50600162000076828262000204565b506200008891506000905033620000ba565b620000b47f9f2df0fed2c77648de5860a4cc508cd0818c85b8b8a1ab4ceeef8d981c8956a633620000ba565b620002d0565b60008281526006602090815260408083206001600160a01b038516845290915290205460ff166200015b5760008281526006602090815260408083206001600160a01b03851684529091529020805460ff191660011790556200011a3390565b6001600160a01b0316816001600160a01b0316837f2f8788117e7eff1d82e926ec794901d17c78024a50270940304540a733656f0d60405160405180910390a45b5050565b634e487b7160e01b600052604160045260246000fd5b600181811c908216806200018a57607f821691505b602082108103620001ab57634e487b7160e01b600052602260045260246000fd5b50919050565b601f821115620001ff57600081815260208120601f850160051c81016020861015620001da5750805b601f850160051c820191505b81811015620001fb57828155600101620001e6565b5050505b505050565b81516001600160401b038111156200022057620002206200015f565b620002388162000231845462000175565b84620001b1565b602080601f831160018114620002705760008415620002575750858301515b600019600386901b1c1916600185901b178555620001fb565b600085815260208120601f198616915b82811015620002a15788860151825594840194600190910190840162000280565b5085821015620002c05787850151600019600388901b60f8161c191681555b5050505050600190811b01905550565b611a8980620002e06000396000f3fe608060405234801561001057600080fd5b50600436106101735760003560e01c806369e2f0fb116100de578063ae3997e911610097578063d539139311610071578063d539139314610340578063d547741f14610355578063e985e9c514610368578063f577a500146103a457600080fd5b8063ae3997e914610307578063b88d4fde1461031a578063c87b56dd1461032d57600080fd5b806369e2f0fb146102ab57806370a08231146102be57806391d14854146102d157806395d89b41146102e4578063a217fddf146102ec578063a22cb465146102f457600080fd5b8063248a9ca311610130578063248a9ca31461021b5780632f2ff15d1461024c57806336568abe1461025f5780633dd1eb611461027257806342842e0e146102855780636352211e1461029857600080fd5b806301ffc9a71461017857806306f5497e146101a057806306fdde03146101b5578063081812fc146101ca578063095ea7b3146101f557806323b872dd14610208575b600080fd5b61018b6101863660046114d7565b6103c7565b60405190151581526020015b60405180910390f35b6101b36101ae3660046114f4565b6103d8565b005b6101bd6103fc565b604051610197919061155d565b6101dd6101d83660046114f4565b61048e565b6040516001600160a01b039091168152602001610197565b6101b361020336600461158c565b6104b5565b6101b36102163660046115b6565b6105cf565b61023e6102293660046114f4565b60009081526006602052604090206001015490565b604051908152602001610197565b6101b361025a3660046115f2565b610600565b6101b361026d3660046115f2565b610625565b6101b361028036600461161e565b6106a3565b6101b36102933660046115b6565b6106c6565b6101dd6102a63660046114f4565b6106e1565b6101b36102b936600461161e565b610741565b61023e6102cc36600461161e565b610764565b61018b6102df3660046115f2565b6107ea565b6101bd610815565b61023e600081565b6101b3610302366004611639565b610824565b6101b361031536600461161e565b61082f565b6101b361032836600461168b565b610885565b6101bd61033b3660046114f4565b6108bd565b61023e600080516020611a3483398151915281565b6101b36103633660046115f2565b610931565b61018b610376366004611767565b6001600160a01b03918216600090815260056020908152604080832093909416825291909152205460ff1690565b61018b6103b23660046114f4565b60009081526008602052604090205460ff1690565b60006103d282610956565b92915050565b60006103e38161097b565b506000908152600860205260409020805460ff19169055565b60606000805461040b90611791565b80601f016020809104026020016040519081016040528092919081815260200182805461043790611791565b80156104845780601f1061045957610100808354040283529160200191610484565b820191906000526020600020905b81548152906001019060200180831161046757829003601f168201915b5050505050905090565b600061049982610988565b506000908152600460205260409020546001600160a01b031690565b60006104c0826106e1565b9050806001600160a01b0316836001600160a01b0316036105325760405162461bcd60e51b815260206004820152602160248201527f4552433732313a20617070726f76616c20746f2063757272656e74206f776e656044820152603960f91b60648201526084015b60405180910390fd5b336001600160a01b038216148061054e575061054e8133610376565b6105c05760405162461bcd60e51b815260206004820152603d60248201527f4552433732313a20617070726f76652063616c6c6572206973206e6f7420746f60448201527f6b656e206f776e6572206f7220617070726f76656420666f7220616c6c0000006064820152608401610529565b6105ca83836109e7565b505050565b6105d93382610a55565b6105f55760405162461bcd60e51b8152600401610529906117cb565b6105ca838383610ad4565b60008281526006602052604090206001015461061b8161097b565b6105ca8383610c38565b6001600160a01b03811633146106955760405162461bcd60e51b815260206004820152602f60248201527f416363657373436f6e74726f6c3a2063616e206f6e6c792072656e6f756e636560448201526e103937b632b9903337b91039b2b63360891b6064820152608401610529565b61069f8282610cbe565b5050565b60006106ae8161097b565b61069f600080516020611a3483398151915283610c38565b6105ca83838360405180602001604052806000815250610885565b6000818152600260205260408120546001600160a01b0316806103d25760405162461bcd60e51b8152602060048201526018602482015277115490cdcc8c4e881a5b9d985b1a59081d1bdad95b88125160421b6044820152606401610529565b600061074c8161097b565b61069f600080516020611a3483398151915283610cbe565b60006001600160a01b0382166107ce5760405162461bcd60e51b815260206004820152602960248201527f4552433732313a2061646472657373207a65726f206973206e6f7420612076616044820152683634b21037bbb732b960b91b6064820152608401610529565b506001600160a01b031660009081526003602052604090205490565b60009182526006602090815260408084206001600160a01b0393909316845291905290205460ff1690565b60606001805461040b90611791565b61069f338383610d25565b600080516020611a348339815191526108478161097b565b60078054600091826108588361182e565b9190505590506108688382610df3565b6000908152600860205260409020805460ff191660011790555050565b61088f3383610a55565b6108ab5760405162461bcd60e51b8152600401610529906117cb565b6108b784848484610e0d565b50505050565b60606108c882610988565b60006108df60408051602081019091526000815290565b905060008151116108ff576040518060200160405280600081525061092a565b8061090984610e40565b60405160200161091a929190611847565b6040516020818303038152906040525b9392505050565b60008281526006602052604090206001015461094c8161097b565b6105ca8383610cbe565b60006001600160e01b03198216637965db0b60e01b14806103d257506103d282610ed3565b6109858133610f23565b50565b6000818152600260205260409020546001600160a01b03166109855760405162461bcd60e51b8152602060048201526018602482015277115490cdcc8c4e881a5b9d985b1a59081d1bdad95b88125160421b6044820152606401610529565b600081815260046020526040902080546001600160a01b0319166001600160a01b0384169081179091558190610a1c826106e1565b6001600160a01b03167f8c5be1e5ebec7d5bd14f71427d1e84f3dd0314c0f7b2291e5b200ac8c7c3b92560405160405180910390a45050565b600080610a61836106e1565b9050806001600160a01b0316846001600160a01b03161480610aa857506001600160a01b0380821660009081526005602090815260408083209388168352929052205460ff165b80610acc5750836001600160a01b0316610ac18461048e565b6001600160a01b0316145b949350505050565b826001600160a01b0316610ae7826106e1565b6001600160a01b031614610b0d5760405162461bcd60e51b815260040161052990611876565b6001600160a01b038216610b6f5760405162461bcd60e51b8152602060048201526024808201527f4552433732313a207472616e7366657220746f20746865207a65726f206164646044820152637265737360e01b6064820152608401610529565b826001600160a01b0316610b82826106e1565b6001600160a01b031614610ba85760405162461bcd60e51b815260040161052990611876565b600081815260046020908152604080832080546001600160a01b03199081169091556001600160a01b0387811680865260038552838620805460001901905590871680865283862080546001019055868652600290945282852080549092168417909155905184937fddf252ad1be2c89b69c2b068fc378daa952ba7f163c4a11628f55a4df523b3ef91a4505050565b610c4282826107ea565b61069f5760008281526006602090815260408083206001600160a01b03851684529091529020805460ff19166001179055610c7a3390565b6001600160a01b0316816001600160a01b0316837f2f8788117e7eff1d82e926ec794901d17c78024a50270940304540a733656f0d60405160405180910390a45050565b610cc882826107ea565b1561069f5760008281526006602090815260408083206001600160a01b0385168085529252808320805460ff1916905551339285917ff6391f5c32d9c69d2a47ea670b442974b53935d1edc7fd64eb21e047a839171b9190a45050565b816001600160a01b0316836001600160a01b031603610d865760405162461bcd60e51b815260206004820152601960248201527f4552433732313a20617070726f766520746f2063616c6c6572000000000000006044820152606401610529565b6001600160a01b03838116600081815260056020908152604080832094871680845294825291829020805460ff191686151590811790915591519182527f17307eab39ab6107e8899845ad3d59bd9653f200f220920489ca2b5937696c31910160405180910390a3505050565b61069f828260405180602001604052806000815250610f7c565b610e18848484610ad4565b610e2484848484610faf565b6108b75760405162461bcd60e51b8152600401610529906118bb565b60606000610e4d836110b0565b600101905060008167ffffffffffffffff811115610e6d57610e6d611675565b6040519080825280601f01601f191660200182016040528015610e97576020820181803683370190505b5090508181016020015b600019016f181899199a1a9b1b9c1cb0b131b232b360811b600a86061a8153600a8504945084610ea157509392505050565b60006001600160e01b031982166380ac58cd60e01b1480610f0457506001600160e01b03198216635b5e139f60e01b145b806103d257506301ffc9a760e01b6001600160e01b03198316146103d2565b610f2d82826107ea565b61069f57610f3a81611188565b610f4583602061119a565b604051602001610f5692919061190d565b60408051601f198184030181529082905262461bcd60e51b82526105299160040161155d565b610f868383611336565b610f936000848484610faf565b6105ca5760405162461bcd60e51b8152600401610529906118bb565b60006001600160a01b0384163b156110a557604051630a85bd0160e11b81526001600160a01b0385169063150b7a0290610ff3903390899088908890600401611982565b6020604051808303816000875af192505050801561102e575060408051601f3d908101601f1916820190925261102b918101906119bf565b60015b61108b573d80801561105c576040519150601f19603f3d011682016040523d82523d6000602084013e611061565b606091505b5080516000036110835760405162461bcd60e51b8152600401610529906118bb565b805181602001fd5b6001600160e01b031916630a85bd0160e11b149050610acc565b506001949350505050565b60008072184f03e93ff9f4daa797ed6e38ed64bf6a1f0160401b83106110ef5772184f03e93ff9f4daa797ed6e38ed64bf6a1f0160401b830492506040015b6d04ee2d6d415b85acef8100000000831061111b576d04ee2d6d415b85acef8100000000830492506020015b662386f26fc10000831061113957662386f26fc10000830492506010015b6305f5e1008310611151576305f5e100830492506008015b612710831061116557612710830492506004015b60648310611177576064830492506002015b600a83106103d25760010192915050565b60606103d26001600160a01b03831660145b606060006111a98360026119dc565b6111b49060026119f3565b67ffffffffffffffff8111156111cc576111cc611675565b6040519080825280601f01601f1916602001820160405280156111f6576020820181803683370190505b509050600360fc1b8160008151811061121157611211611a06565b60200101906001600160f81b031916908160001a905350600f60fb1b8160018151811061124057611240611a06565b60200101906001600160f81b031916908160001a90535060006112648460026119dc565b61126f9060016119f3565b90505b60018111156112e7576f181899199a1a9b1b9c1cb0b131b232b360811b85600f16601081106112a3576112a3611a06565b1a60f81b8282815181106112b9576112b9611a06565b60200101906001600160f81b031916908160001a90535060049490941c936112e081611a1c565b9050611272565b50831561092a5760405162461bcd60e51b815260206004820181905260248201527f537472696e67733a20686578206c656e67746820696e73756666696369656e746044820152606401610529565b6001600160a01b03821661138c5760405162461bcd60e51b815260206004820181905260248201527f4552433732313a206d696e7420746f20746865207a65726f20616464726573736044820152606401610529565b6000818152600260205260409020546001600160a01b0316156113f15760405162461bcd60e51b815260206004820152601c60248201527f4552433732313a20746f6b656e20616c7265616479206d696e746564000000006044820152606401610529565b6000818152600260205260409020546001600160a01b0316156114565760405162461bcd60e51b815260206004820152601c60248201527f4552433732313a20746f6b656e20616c7265616479206d696e746564000000006044820152606401610529565b6001600160a01b038216600081815260036020908152604080832080546001019055848352600290915280822080546001600160a01b0319168417905551839291907fddf252ad1be2c89b69c2b068fc378daa952ba7f163c4a11628f55a4df523b3ef908290a45050565b6001600160e01b03198116811461098557600080fd5b6000602082840312156114e957600080fd5b813561092a816114c1565b60006020828403121561150657600080fd5b5035919050565b60005b83811015611528578181015183820152602001611510565b50506000910152565b6000815180845261154981602086016020860161150d565b601f01601f19169290920160200192915050565b60208152600061092a6020830184611531565b80356001600160a01b038116811461158757600080fd5b919050565b6000806040838503121561159f57600080fd5b6115a883611570565b946020939093013593505050565b6000806000606084860312156115cb57600080fd5b6115d484611570565b92506115e260208501611570565b9150604084013590509250925092565b6000806040838503121561160557600080fd5b8235915061161560208401611570565b90509250929050565b60006020828403121561163057600080fd5b61092a82611570565b6000806040838503121561164c57600080fd5b61165583611570565b91506020830135801515811461166a57600080fd5b809150509250929050565b634e487b7160e01b600052604160045260246000fd5b600080600080608085870312156116a157600080fd5b6116aa85611570565b93506116b860208601611570565b925060408501359150606085013567ffffffffffffffff808211156116dc57600080fd5b818701915087601f8301126116f057600080fd5b81358181111561170257611702611675565b604051601f8201601f19908116603f0116810190838211818310171561172a5761172a611675565b816040528281528a602084870101111561174357600080fd5b82602086016020830137600060208483010152809550505050505092959194509250565b6000806040838503121561177a57600080fd5b61178383611570565b915061161560208401611570565b600181811c908216806117a557607f821691505b6020821081036117c557634e487b7160e01b600052602260045260246000fd5b50919050565b6020808252602d908201527f4552433732313a2063616c6c6572206973206e6f7420746f6b656e206f776e6560408201526c1c881bdc88185c1c1c9bdd9959609a1b606082015260800190565b634e487b7160e01b600052601160045260246000fd5b60006001820161184057611840611818565b5060010190565b6000835161185981846020880161150d565b83519083019061186d81836020880161150d565b01949350505050565b60208082526025908201527f4552433732313a207472616e736665722066726f6d20696e636f72726563742060408201526437bbb732b960d91b606082015260800190565b60208082526032908201527f4552433732313a207472616e7366657220746f206e6f6e20455243373231526560408201527131b2b4bb32b91034b6b83632b6b2b73a32b960711b606082015260800190565b7f416363657373436f6e74726f6c3a206163636f756e742000000000000000000081526000835161194581601785016020880161150d565b7001034b99036b4b9b9b4b733903937b6329607d1b601791840191820152835161197681602884016020880161150d565b01602801949350505050565b6001600160a01b03858116825284166020820152604081018390526080606082018190526000906119b590830184611531565b9695505050505050565b6000602082840312156119d157600080fd5b815161092a816114c1565b80820281158282048414176103d2576103d2611818565b808201808211156103d2576103d2611818565b634e487b7160e01b600052603260045260246000fd5b600081611a2b57611a2b611818565b50600019019056fe9f2df0fed2c77648de5860a4cc508cd0818c85b8b8a1ab4ceeef8d981c8956a6a26469706673582212204872baebf88d70477b60320872b875e95787daa7f382068fb2a3265522f0e55a64736f6c63430008140033",
  "linkReferences": {},
  "deployedLinkReferences": {}
}