{
  "_format": "hh-sol-artifact-1",
  "contractName": "Verification",
  "sourceName": "contracts/Verification.sol",
  "abi": [
    {
      "inputs": [
        {
          "internalType": "address",
          "name": "nftAddress",
          "type": "address"
        }
      ],
      "stateMutability": "nonpayable",
      "type": "constructor"
    },
    {
      "inputs": [],
      "name": "nft",
      "outputs": [
        {
          "internalType": "contract ICertificateNFT",
          "name": "",
          "type": "address"
        }
      ],
      "stateMutability": "view",
      "type": "function"
    },
    {
      "inputs": [
        {
          "internalType": "uint256",
          "name": "tokenId",
          "type": "uint256"
        }
      ],
      "name": "verifyCertificate",
      "outputs": [
        {
          "internalType": "bool",
          "name": "",
          "type": "bool"
        }
      ],
      "stateMutability": "view",
      "type": "function"
    }
  ],
  "bytecode": "0x608060405234801561001057600080fd5b5060405161020c38038061020c83398101604081905261002f91610054565b600080546001600160a01b0319166001600160a01b0392909216919091179055610084565b60006020828403121561006657600080fd5b81516001600160a01b038116811461007d57600080fd5b9392505050565b610179806100936000396000f3fe608060405234801561001057600080fd5b50600436106100365760003560e01c80631692a9421461003b57806347ccca0214610063575b600080fd5b61004e610049366004610101565b61008e565b60405190151581526020015b60405180910390f35b600054610076906001600160a01b031681565b6040516001600160a01b03909116815260200161005a565b6000805460405162f577a560e81b8152600481018490526001600160a01b039091169063f577a50090602401602060405180830381865afa1580156100d7573d6000803e3d6000fd5b505050506040513d601f19601f820116820180604052508101906100fb919061011a565b92915050565b60006020828403121561011357600080fd5b5035919050565b60006020828403121561012c57600080fd5b8151801515811461013c57600080fd5b939250505056fea264697066735822122042e18c85560def998287fe57a2811fbc5fb60007e8188ec3ebba1d604ba296d064736f6c63430008140033",
  "linkReferences": {},
  "deployedLinkReferences": {}
}