{
  "_format": "hh-sol-artifact-1",
  "contractName": "UniversityRegistry",
  "sourceName": "contracts/UniversityRegistry.sol",
  "abi": [
    {
      "inputs": [
        {
          "internalType": "address",
          "name": "root",
          "type": "address"
        }
      ],
      "stateMutability": "nonpayable",
      "type": "constructor"
    },
    {
      "anonymous": false,
      "inputs": [
        {
          "indexed": true,
          "internalType": "bytes32",
          "name": "role",
          "type": "bytes32"
        },
        {
          "indexed": true,
          "internalType": "bytes32",
          "name": "previousAdminRole",
          "type": "bytes32"
        },
        {
          "indexed": true,
          "internalType": "bytes32",
          "name": "newAdminRole",
          "type": "bytes32"
        }
      ],
      "name": "RoleAdminChanged",
      "type": "event"
    },
    {
      "anonymous": false,
      "inputs": [
        {
          "indexed": true,
          "internalType": "bytes32",
          "name": "role",
          "type": "bytes32"
        },
        {
          "indexed": true,
          "internalType": "address",
          "name": "account",
          "type": "address"
        },
        {
          "indexed": true,
          "internalType": "address",
          "name": "sender",
          "type": "address"
        }
      ],
      "name": "RoleGranted",
      "type": "event"
    },
    {
      "anonymous": false,
      "inputs": [
        {
          "indexed": true,
          "internalType": "bytes32",
          "name": "role",
          "type": "bytes32"
        },
        {
          "indexed": true,
          "internalType": "address",
          "name": "account",
          "type": "address"
        },
        {
          "indexed": true,
          "internalType": "address",
          "name": "sender",
          "type": "address"
        }
      ],
      "name": "RoleRevoked",
      "type": "event"
    },
    {
      "anonymous": false,
      "inputs": [
        {
          "indexed": true,
          "internalType": "address",
          "name": "univ",
          "type": "address"
        },
        {
          "indexed": false,
          "internalType": "string",
          "name": "metadataURI",
          "type": "string"
        }
      ],
      "name": "UniversityRegistered",
      "type": "event"
    },
    {
      "anonymous": false,
      "inputs": [
        {
          "indexed": true,
          "internalType": "address",
          "name": "univ",
          "type": "address"
        },
        {
          "indexed": false,
          "internalType": "bool",
          "name": "active",
          "type": "bool"
        }
      ],
      "name": "UniversityStatusUpdated",
      "type": "event"
    },
    {
      "inputs": [],
      "name": "DEFAULT_ADMIN_ROLE",
      "outputs": [
        {
          "internalType": "bytes32",
          "name": "",
          "type": "bytes32"
        }
      ],
      "stateMutability": "view",
      "type": "function"
    },
    {
      "inputs": [],
      "name": "ROOT_ADMIN",
      "outputs": [
        {
          "internalType": "bytes32",
          "name": "",
          "type": "bytes32"
        }
      ],
      "stateMutability": "view",
      "type": "function"
    },
    {
      "inputs": [],
      "name": "UNIVERSITY_ROLE",
      "outputs": [
        {
          "internalType": "bytes32",
          "name": "",
          "type": "bytes32"
        }
      ],
      "stateMutability": "view",
      "type": "function"
    },
    {
      "inputs": [
        {
          "internalType": "bytes32",
          "name": "role",
          "type": "bytes32"
        }
      ],
      "name": "getRoleAdmin",
      "outputs": [
        {
          "internalType": "bytes32",
          "name": "",
          "type": "bytes32"
        }
      ],
      "stateMutability": "view",
      "type": "function"
    },
    {
      "inputs": [
        {
          "internalType": "address",
          "name": "univAddr",
          "type": "address"
        }
      ],
      "name": "getUniversity",
      "outputs": [
        {
          "internalType": "bool",
          "name": "active",
          "type": "bool"
        },
        {
          "internalType": "string",
          "name": "metadataURI",
          "type": "string"
        }
      ],
      "stateMutability": "view",
      "type": "function"
    },
    {
      "inputs": [
        {
          "internalType": "bytes32",
          "name": "role",
          "type": "bytes32"
        },
        {
          "internalType": "address",
          "name": "account",
          "type": "address"
        }
      ],
      "name": "grantRole",
      "outputs": [],
      "stateMutability": "nonpayable",
      "type": "function"
    },
    {
      "inputs": [
        {
          "internalType": "bytes32",
          "name": "role",
          "type": "bytes32"
        },
        {
          "internalType": "address",
          "name": "account",
          "type": "address"
        }
      ],
      "name": "hasRole",
      "outputs": [
        {
          "internalType": "bool",
          "name": "",
          "type": "bool"
        }
      ],
      "stateMutability": "view",
      "type": "function"
    },
    {
      "inputs": [
        {
          "internalType": "address",
          "name": "univAddr",
          "type": "address"
        },
        {
          "internalType": "string",
          "name": "metadataURI",
          "type": "string"
        }
      ],
      "name": "registerUniversity",
      "outputs": [],
      "stateMutability": "nonpayable",
      "type": "function"
    },
    {
      "inputs": [
        {
          "internalType": "bytes32",
          "name": "role",
          "type": "bytes32"
        },
        {
          "internalType": "address",
          "name": "account",
          "type": "address"
        }
      ],
      "name": "renounceRole",
      "outputs": [],
      "stateMutability": "nonpayable",
      "type": "function"
    },
    {
      "inputs": [
        {
          "internalType": "bytes32",
          "name": "role",
          "type": "bytes32"
        },
        {
          "internalType": "address",
          "name": "account",
          "type": "address"
        }
      ],
      "name": "revokeRole",
      "outputs": [],
      "stateMutability": "nonpayable",
      "type": "function"
    },
    {
      "inputs": [
        {
          "internalType": "bytes4",
          "name": "interfaceId",
          "type": "bytes4"
        }
      ],
      "name": "supportsInterface",
      "outputs": [
        {
          "internalType": "bool",
          "name": "",
          "type": "bool"
        }
      ],
      "stateMutability": "view",
      "type": "function"
    },
    {
      "inputs": [
        {
          "internalType": "address",
          "name": "",
          "type": "address"
        }
      ],
      "name": "universities",
      "outputs": [
        {
          "internalType": "address",
          "name": "addr",
          "type": "address"
        },
        {
          "internalType": "string",
          "name": "metadataURI",
          "type": "string"
        },
        {
          "internalType": "bool",
          "name": "active",
          "type": "bool"
        }
      ],
      "stateMutability": "view",
      "type": "function"
    },
    {
      "inputs": [
        {
          "internalType": "address",
          "name": "univAddr",
          "type": "address"
        },
        {
          "internalType": "bool",
          "name": "active",
          "type": "bool"
        }
      ],
      "name": "updateStatus",
      "outputs": [],
      "stateMutability": "nonpayable",
      "type": "function"
    }
  ],
  "bytecode": "0x608060405234801561001057600080fd5b5060405161101138038061101183398101604081905261002f91610116565b61003a60008261006a565b6100647fe8ad7fbd332b5c76aa9eb8d0eb65e0a01edf883c12322a5a719c8e44ee98e6278261006a565b50610146565b6100748282610078565b5050565b6000828152602081815260408083206001600160a01b038516845290915290205460ff16610074576000828152602081815260408083206001600160a01b03851684529091529020805460ff191660011790556100d23390565b6001600160a01b0316816001600160a01b0316837f2f8788117e7eff1d82e926ec794901d17c78024a50270940304540a733656f0d60405160405180910390a45050565b60006020828403121561012857600080fd5b81516001600160a01b038116811461013f57600080fd5b9392505050565b610ebc806101556000396000f3fe608060405234801561001057600080fd5b50600436106100cf5760003560e01c806391d148541161008c578063ace3d59511610066578063ace3d595146101cb578063b25dd32a146101de578063d547741f14610205578063f09955601461021857600080fd5b806391d148541461018f57806394a59ea6146101a2578063a217fddf146101c357600080fd5b806301ffc9a7146100d4578063248a9ca3146100fc5780632f2ff15d1461012d57806336568abe146101425780633d178414146101555780637444144b1461017c575b600080fd5b6100e76100e23660046109f6565b61023a565b60405190151581526020015b60405180910390f35b61011f61010a366004610a20565b60009081526020819052604090206001015490565b6040519081526020016100f3565b61014061013b366004610a55565b610271565b005b610140610150366004610a55565b61029b565b61011f7f5bb0bf1fabd5e975fc7a4520766d9e86e0eb281f8c7c44fcd3dfe60a11e786ca81565b61014061018a366004610a81565b61031e565b6100e761019d366004610a55565b6103ab565b6101b56101b0366004610abd565b6103d4565b6040516100f3929190610b28565b61011f600081565b6101406101d9366004610b4b565b6104c1565b61011f7fe8ad7fbd332b5c76aa9eb8d0eb65e0a01edf883c12322a5a719c8e44ee98e62781565b610140610213366004610a55565b610614565b61022b610226366004610abd565b610639565b6040516100f393929190610bce565b60006001600160e01b03198216637965db0b60e01b148061026b57506301ffc9a760e01b6001600160e01b03198316145b92915050565b60008281526020819052604090206001015461028c816106f2565b61029683836106ff565b505050565b6001600160a01b03811633146103105760405162461bcd60e51b815260206004820152602f60248201527f416363657373436f6e74726f6c3a2063616e206f6e6c792072656e6f756e636560448201526e103937b632b9903337b91039b2b63360891b60648201526084015b60405180910390fd5b61031a8282610783565b5050565b7fe8ad7fbd332b5c76aa9eb8d0eb65e0a01edf883c12322a5a719c8e44ee98e627610348816106f2565b6001600160a01b038316600081815260016020908152604091829020600201805460ff191686151590811790915591519182527fa1b6c99f6dcb2a06e564ee59f0953acbc4d098686f0f1cd3f6e3a74ac11ac0c7910160405180910390a2505050565b6000918252602082815260408084206001600160a01b0393909316845291905290205460ff1690565b6001600160a01b0380821660009081526001602081815260408084208151606081810190935281549096168652928301805494959194869492938401919061041b90610c04565b80601f016020809104026020016040519081016040528092919081815260200182805461044790610c04565b80156104945780601f1061046957610100808354040283529160200191610494565b820191906000526020600020905b81548152906001019060200180831161047757829003601f168201915b50505091835250506002919091015460ff1615156020918201526040820151910151909590945092505050565b7fe8ad7fbd332b5c76aa9eb8d0eb65e0a01edf883c12322a5a719c8e44ee98e6276104eb816106f2565b6040518060600160405280856001600160a01b0316815260200184848080601f01602080910402602001604051908101604052809392919081815260200183838082843760009201829052509385525050600160209384018190526001600160a01b0389811684528185526040909320855181546001600160a01b0319169416939093178355928401519192830191610585915082610ca2565b50604091909101516002909101805460ff19169115159190911790556105cb7f5bb0bf1fabd5e975fc7a4520766d9e86e0eb281f8c7c44fcd3dfe60a11e786ca856106ff565b836001600160a01b03167f9e7aff20b8d74f44a6eab16e94b9ff91d18db8a3797b539571a31d90dc530d238484604051610606929190610d62565b60405180910390a250505050565b60008281526020819052604090206001015461062f816106f2565b6102968383610783565b6001602081905260009182526040909120805491810180546001600160a01b039093169261066690610c04565b80601f016020809104026020016040519081016040528092919081815260200182805461069290610c04565b80156106df5780601f106106b4576101008083540402835291602001916106df565b820191906000526020600020905b8154815290600101906020018083116106c257829003601f168201915b5050506002909301549192505060ff1683565b6106fc81336107e8565b50565b61070982826103ab565b61031a576000828152602081815260408083206001600160a01b03851684529091529020805460ff1916600117905561073f3390565b6001600160a01b0316816001600160a01b0316837f2f8788117e7eff1d82e926ec794901d17c78024a50270940304540a733656f0d60405160405180910390a45050565b61078d82826103ab565b1561031a576000828152602081815260408083206001600160a01b0385168085529252808320805460ff1916905551339285917ff6391f5c32d9c69d2a47ea670b442974b53935d1edc7fd64eb21e047a839171b9190a45050565b6107f282826103ab565b61031a576107ff81610841565b61080a836020610853565b60405160200161081b929190610d91565b60408051601f198184030181529082905262461bcd60e51b825261030791600401610e06565b606061026b6001600160a01b03831660145b60606000610862836002610e2f565b61086d906002610e46565b67ffffffffffffffff81111561088557610885610c3e565b6040519080825280601f01601f1916602001820160405280156108af576020820181803683370190505b509050600360fc1b816000815181106108ca576108ca610e59565b60200101906001600160f81b031916908160001a905350600f60fb1b816001815181106108f9576108f9610e59565b60200101906001600160f81b031916908160001a905350600061091d846002610e2f565b610928906001610e46565b90505b60018111156109a0576f181899199a1a9b1b9c1cb0b131b232b360811b85600f166010811061095c5761095c610e59565b1a60f81b82828151811061097257610972610e59565b60200101906001600160f81b031916908160001a90535060049490941c9361099981610e6f565b905061092b565b5083156109ef5760405162461bcd60e51b815260206004820181905260248201527f537472696e67733a20686578206c656e67746820696e73756666696369656e746044820152606401610307565b9392505050565b600060208284031215610a0857600080fd5b81356001600160e01b0319811681146109ef57600080fd5b600060208284031215610a3257600080fd5b5035919050565b80356001600160a01b0381168114610a5057600080fd5b919050565b60008060408385031215610a6857600080fd5b82359150610a7860208401610a39565b90509250929050565b60008060408385031215610a9457600080fd5b610a9d83610a39565b915060208301358015158114610ab257600080fd5b809150509250929050565b600060208284031215610acf57600080fd5b6109ef82610a39565b60005b83811015610af3578181015183820152602001610adb565b50506000910152565b60008151808452610b14816020860160208601610ad8565b601f01601f19169290920160200192915050565b8215158152604060208201526000610b436040830184610afc565b949350505050565b600080600060408486031215610b6057600080fd5b610b6984610a39565b9250602084013567ffffffffffffffff80821115610b8657600080fd5b818601915086601f830112610b9a57600080fd5b813581811115610ba957600080fd5b876020828501011115610bbb57600080fd5b6020830194508093505050509250925092565b6001600160a01b0384168152606060208201819052600090610bf290830185610afc565b90508215156040830152949350505050565b600181811c90821680610c1857607f821691505b602082108103610c3857634e487b7160e01b600052602260045260246000fd5b50919050565b634e487b7160e01b600052604160045260246000fd5b601f82111561029657600081815260208120601f850160051c81016020861015610c7b5750805b601f850160051c820191505b81811015610c9a57828155600101610c87565b505050505050565b815167ffffffffffffffff811115610cbc57610cbc610c3e565b610cd081610cca8454610c04565b84610c54565b602080601f831160018114610d055760008415610ced5750858301515b600019600386901b1c1916600185901b178555610c9a565b600085815260208120601f198616915b82811015610d3457888601518255948401946001909101908401610d15565b5085821015610d525787850151600019600388901b60f8161c191681555b5050505050600190811b01905550565b60208152816020820152818360408301376000818301604090810191909152601f909201601f19160101919050565b7f416363657373436f6e74726f6c3a206163636f756e7420000000000000000000815260008351610dc9816017850160208801610ad8565b7001034b99036b4b9b9b4b733903937b6329607d1b6017918401918201528351610dfa816028840160208801610ad8565b01602801949350505050565b6020815260006109ef6020830184610afc565b634e487b7160e01b600052601160045260246000fd5b808202811582820484141761026b5761026b610e19565b8082018082111561026b5761026b610e19565b634e487b7160e01b600052603260045260246000fd5b600081610e7e57610e7e610e19565b50600019019056fea26469706673582212200bf406cba87347b4281b00a48ad66ea0e1681e651affea337326de50fe88fbd464736f6c63430008140033",
  "linkReferences": {},
  "deployedLinkReferences": {}
}